{"abi":[{"type":"function","name":"balanceOf","inputs":[{"name":"_address","type":"address","internalType":"address"}],"outputs":[{"name":"","type":"uint256","internalType":"uint256"}],"stateMutability":"view"},{"type":"function","name":"claimRewards","inputs":[],"outputs":[],"stateMutability":"nonpayable"},{"type":"function","name":"getRewards","inputs":[{"name":"_address","type":"address","internalType":"address"}],"outputs":[{"name":"","type":"uint256","internalType":"uint256"}],"stateMutability":"view"},{"type":"function","name":"stake","inputs":[],"outputs":[],"stateMutability":"payable"},{"type":"function","name":"unstake","inputs":[{"name":"_amount","type":"uint256","internalType":"uint256"}],"outputs":[],"stateMutability":"nonpayable"}],"bytecode":{"object":"0x6080604052348015600e575f5ffd5b506109cf8061001c5f395ff3fe608060405260043610610049575f3560e01c80632e17de781461004d578063372500ab146100755780633a4b66f11461008b57806370a082311461009557806379ee54f7146100d1575b5f5ffd5b348015610058575f5ffd5b50610073600480360381019061006e91906107ed565b61010d565b005b348015610080575f5ffd5b50610089610312565b005b610093610473565b005b3480156100a0575f5ffd5b506100bb60048036038101906100b69190610872565b610682565b6040516100c891906108ac565b60405180910390f35b3480156100dc575f5ffd5b506100f760048036038101906100f29190610872565b6106c7565b60405161010491906108ac565b60405180910390f35b5f5f3373ffffffffffffffffffffffffffffffffffffffff1673ffffffffffffffffffffffffffffffffffffffff1681526020019081526020015f2054811115610155575f5ffd5b5f5f3373ffffffffffffffffffffffffffffffffffffffff1673ffffffffffffffffffffffffffffffffffffffff1681526020019081526020015f205460025f3373ffffffffffffffffffffffffffffffffffffffff1673ffffffffffffffffffffffffffffffffffffffff1681526020019081526020015f2054426101db91906108f2565b6101e59190610925565b60015f3373ffffffffffffffffffffffffffffffffffffffff1673ffffffffffffffffffffffffffffffffffffffff1681526020019081526020015f205f8282546102309190610966565b925050819055504260025f3373ffffffffffffffffffffffffffffffffffffffff1673ffffffffffffffffffffffffffffffffffffffff1681526020019081526020015f20819055503373ffffffffffffffffffffffffffffffffffffffff166108fc8290811502906040515f60405180830381858888f193505050501580156102bc573d5f5f3e3d5ffd5b50805f5f3373ffffffffffffffffffffffffffffffffffffffff1673ffffffffffffffffffffffffffffffffffffffff1681526020019081526020015f205f82825461030891906108f2565b9250508190555050565b5f60015f3373ffffffffffffffffffffffffffffffffffffffff1673ffffffffffffffffffffffffffffffffffffffff1681526020019081526020015f205490505f60025f3373ffffffffffffffffffffffffffffffffffffffff1673ffffffffffffffffffffffffffffffffffffffff1681526020019081526020015f205490505f5f5f3373ffffffffffffffffffffffffffffffffffffffff1673ffffffffffffffffffffffffffffffffffffffff1681526020019081526020015f205482426103de91906108f2565b6103e89190610925565b90505f60015f3373ffffffffffffffffffffffffffffffffffffffff1673ffffffffffffffffffffffffffffffffffffffff1681526020019081526020015f20819055504260025f3373ffffffffffffffffffffffffffffffffffffffff1673ffffffffffffffffffffffffffffffffffffffff1681526020019081526020015f2081905550505050565b5f341161047e575f5ffd5b5f60025f3373ffffffffffffffffffffffffffffffffffffffff1673ffffffffffffffffffffffffffffffffffffffff1681526020019081526020015f205403610509574260025f3373ffffffffffffffffffffffffffffffffffffffff1673ffffffffffffffffffffffffffffffffffffffff1681526020019081526020015f208190555061062e565b5f5f3373ffffffffffffffffffffffffffffffffffffffff1673ffffffffffffffffffffffffffffffffffffffff1681526020019081526020015f205460025f3373ffffffffffffffffffffffffffffffffffffffff1673ffffffffffffffffffffffffffffffffffffffff1681526020019081526020015f20544261058f91906108f2565b6105999190610925565b60015f3373ffffffffffffffffffffffffffffffffffffffff1673ffffffffffffffffffffffffffffffffffffffff1681526020019081526020015f205f8282546105e49190610966565b925050819055504260025f3373ffffffffffffffffffffffffffffffffffffffff1673ffffffffffffffffffffffffffffffffffffffff1681526020019081526020015f20819055505b345f5f3373ffffffffffffffffffffffffffffffffffffffff1673ffffffffffffffffffffffffffffffffffffffff1681526020019081526020015f205f8282546106799190610966565b92505081905550565b5f5f5f8373ffffffffffffffffffffffffffffffffffffffff1673ffffffffffffffffffffffffffffffffffffffff1681526020019081526020015f20549050919050565b5f5f60015f3373ffffffffffffffffffffffffffffffffffffffff1673ffffffffffffffffffffffffffffffffffffffff1681526020019081526020015f205490505f60025f3373ffffffffffffffffffffffffffffffffffffffff1673ffffffffffffffffffffffffffffffffffffffff1681526020019081526020015f205490505f5f5f8673ffffffffffffffffffffffffffffffffffffffff1673ffffffffffffffffffffffffffffffffffffffff1681526020019081526020015f2054824261079491906108f2565b61079e9190610925565b905080836107ac9190610966565b9350505050919050565b5f5ffd5b5f819050919050565b6107cc816107ba565b81146107d6575f5ffd5b50565b5f813590506107e7816107c3565b92915050565b5f60208284031215610802576108016107b6565b5b5f61080f848285016107d9565b91505092915050565b5f73ffffffffffffffffffffffffffffffffffffffff82169050919050565b5f61084182610818565b9050919050565b61085181610837565b811461085b575f5ffd5b50565b5f8135905061086c81610848565b92915050565b5f60208284031215610887576108866107b6565b5b5f6108948482850161085e565b91505092915050565b6108a6816107ba565b82525050565b5f6020820190506108bf5f83018461089d565b92915050565b7f4e487b71000000000000000000000000000000000000000000000000000000005f52601160045260245ffd5b5f6108fc826107ba565b9150610907836107ba565b925082820390508181111561091f5761091e6108c5565b5b92915050565b5f61092f826107ba565b915061093a836107ba565b9250828202610948816107ba565b9150828204841483151761095f5761095e6108c5565b5b5092915050565b5f610970826107ba565b915061097b836107ba565b9250828201905080821115610993576109926108c5565b5b9291505056fea2646970667358221220729084f882719591d0bf7b1a80256ea45c6f30cd1a2826c3f1135c6747a9ecf364736f6c634300081d0033","linkReferences":{}},"methodIdentifiers":{"balanceOf(address)":"70a08231","claimRewards()":"372500ab","getRewards(address)":"79ee54f7","stake()":"3a4b66f1","unstake(uint256)":"2e17de78"},"id":4}